:020000020000FC
:1000000000C0F8942B9800E0E02EF02E52EF5AB981
:1000100058EF54B95FE757B950E050937C0057E868
:1000200050937A0050E3852E0E949E000E9460014A
:100030000E946F010E947E01D22EC32E0E945E009C
:100040000E9473017B2C0E94DC000E9460010E94D0
:100050006F018B2D78120E94320059B152FD0E941F
:100060004400F1CF0E9460010E946F010E94730161
:100070000E947E010E9488010E947301D22EC32E2D
:100080000E945E007B2C0895599A0E94E100E02EA8
:100090000E945E00599A0E94E100F02E0E945E00CC
:1000A0000E94880150E0252E429843984498459834
:1000B000289829982A980E947301089591E04DD0BC
:1000C0002C9875D092E55AD095E658D096E656D041
:1000D00095E654D092E752D095E650D09EE64ED0A9
:1000E00093E64CD095E64AD090E248D09E2D980DEC
:1000F00045D09F2D980D42D09FED40D093E43ED047
:1001000090EC2BD054D093E439D095E737D092E7D8
:1001100035D092E733D095E631D09EE62FD094E7E4
:100120002DD090E22BD09D2D980D28D09C2D980D90
:1001300025D09FED23D093E421D0089593E30DD0F3
:1001400036D092E30AD033D098E207D030D09CE08A
:1001500004D091E002D02BD00895A92FA07FABB995
:100160002D982C9A1CD02C981DD0A92FA295A07F39
:10017000ABB92C9A14D02C9815D00895A92FA07F34
:10018000ABB92D9A2C9A0BD02C980CD0A92FA295F4
:10019000A07FABB92C9A03D02C9804D0089500000E
:1001A000000008954AE5FBDF4A95E9F7089558E213
:1001B000F9DF5A95E9F70895F2E3F9DFFA95E9F7DF
:1001C00008954298439844984598289A299A2A9ADB
:1001D000000000000000000013B117701730C1F7D5
:1001E00000000000000000000000000013B11770C4
:1001F0001730B1F34298439A449A459A00000000A0
:10020000000000000000000013B11770173051F516
:10021000429A4398449A459A00000000000000006A
:100220000000000013B11770173011F5429A439A7D
:100230004498459A00000000000000000000000003
:1002400013B117701730D1F4429A439A449A4598E3
:1002500000000000000000000000000013B1177053
:10026000173091F41630B1F01530B1F01330B1F011
:100270001630B1F01530B1F01330B1F01630B1F0E6
:100280001530B1F01330B1F01630B1F01530A9F0DF
:100290001330A9F001E0089502E0089503E0089505
:1002A00004E0089505E0089506E0089507E0089544
:1002B00008E0089509E00895089500E0089508957C
:1002C00057EC50937A0050917A0054FFFCCF57EDD1
:1002D00050937A00A0907800909079000895EA2DCC
:1002E000E695BE2E0895662755276B2D6B1B12F0E1
:1002F0000C947C012B9808952B9A0895CC273B2DC4
:1003000020E0CAE03C1B12F02395FCCF3C0F08957F
:100310007727AE2DBF2D7AE0AA9512F0B70FFCCF4C
:0203200008953E
:00000001FF
